:020000040800F2
:1000000008070020BD010008B1140008A914000869
:10001000AD140008AD040008C5140008000000007D
:10002000000000000000000000000000B9140008FB
:10003000B104000800000000B5140008BD14000859
:10004000D7010008D7010008D7010008D701000830
:10005000D7010008D7010008D7010008D701000820
:10006000D7010008D7010008D7010008D701000810
:10007000D7010008D7010008D7010008D701000800
:10008000D7010008D7010008D7010008D7010008F0
:10009000D7010008D7010008D7010008D7010008E0
:1000A000D7010008D7010008D7010008D7010008D0
:1000B000D7010008D7010008D7010008D7010008C0
:1000C000D7010008D7010008D7010008D7010008B0
:1000D000D7010008D7010008D7010008D7010008A0
:1000E000D7010008D7010008D701000800F002F886
:1000F00000F055F814A696E8000CB244B344DA4573
:1001000001D100F04CF8BAE80F000FA696E83000D5
:10011000A5EB040504EB0607AAEB0704A7F101070A
:100120004FEA15154FEA3414A4F10104AC4201D38F
:1001300000F035F813F0010F18BFFB1A43F001036C
:1001400000F001F8DBE718476C1500008C15000083
:10015000103A24BF78C878C1FAD8520724BF30C8F3
:1001600030C144BF04680C60704700007047000055
:100170000023002400250026103A28BF78C1FBD8B0
:10018000520728BF30C148BF0B607047752900F087
:100190007D80002070471FB51FBD10B510BD00F059
:1001A0004AF91146FFF7F7FF01F08EF900F068F900
:1001B00003B4FFF7F2FF03BC00F070F90948804771
:1001C00009480047FEE7FEE7FEE7FEE7FEE7FEE739
:1001D000FEE7FEE7FEE7FEE704480549054A064B51
:1001E00070470000C1140008ED000008080100205D
:1001F0000807002008030020080300200FB41CB5E6
:10020000074B06AA7B4469460090059800F0FBF86E
:100210000020694600F00AF91CBC5DF814FB0000E0
:10022000250200002DE9F0410E4604460020206220
:100230002046E168884730B3252805D0D4E901215C
:100240009047206A401CF2E7E16820460027884773
:10025000050018D0A5F14100192802D820354FF427
:1002600000673246294620462760FFF78FFF40B1DE
:10027000012804D0F61D26F007060836D8E7361DFB
:10028000D6E72846DAE7206ABDE8F0812DE9F0419B
:100290000646002410687529314616A510D0AFF324
:1002A0000080002802DA404213A507E031688A077F
:1002B00001D512A502E0490704D511A5012401E0EA
:1002C000AFF3008000210A2206F1240709E0B0FB09
:1002D000F2FCB0FBF2F302FB1C00303078541846FD
:1002E000491C0028F3D123462A463046BDE8F04198
:1002F00000F02AB8000000002D0000002B000000D4
:100300002000000010B5431C02E010F8011B71B181
:100310008107FAD14FF0013202C88C1A8C4314EADB
:10032000C211F9D0C01A0A0603D0C01E10BDC01AEF
:1003300010BD0A0401D0801E10BD0902FCD0401E71
:1003400010BD7047704770472DE9F0470D4699463C
:100350009246044600F124080168880604D5E06945
:1003600021F01001216000E00120A84201DD471BBF
:1003700000E00027A1697A1902EB0900081AA061C0
:100380002078C00602D42046AFF30080002608E0A3
:10039000D4E901211AF806009047206A401C761C17
:1003A00020624E45F4DB2078C0060AD52046AFF324
:1003B000008006E0D4E9012130209047206A401CEB
:1003C0002062381EA7F10107F4DC07E0D4E901211F
:1003D00018F805009047206A401C2062281EA5F1ED
:1003E0000105F3DC2046AFF300802078000602D53B
:1003F0000220BDE8F0870120FBE7000001694A1CEC
:1004000002610878704700B58FB0CDE90131002155
:10041000059105497944CDE9031011466846FFF777
:1004200001FF0FB000BD0000E5FFFFFF0A6802F802
:10043000010B0A607047754600F02CF8AE460500C7
:100440006946534620F00700854618B020B5FFF7EF
:10045000C3FEBDE820404FF000064FF000074FF00C
:1004600000084FF0000BAC46ACE8C009ACE8C0098E
:10047000ACE8C009ACE8C00921F007018D4670471F
:1004800010B50446AFF300802046BDE81040FFF7EA
:100490008FBE00000048704710000020014918205E
:1004A000ABBEFEE72600020070470000FEE700003A
:1004B000704700002DE9F04F82B00E68002E00F06A
:1004C000FD8041F20042C4F20102042340F2004EDA
:1004D000904208BF03234FF6FF7CC4F2010E009345
:1004E00000240123C1F2100C4FF0000A4FF0000964
:1004F0004BE000BF41F20002C4F20102009F9042B3
:1005000008BF022704F00C030F229A402BEA0202D4
:1005100007FA03F34FEA9A051A4346F825204E6876
:1005200040F20C45F202DEF8082054BF22EA08022D
:1005300042EA0802C4F20105CEF808202A68B30294
:1005400054BF22EA080242EA08022A60B303DEF836
:10055000042054BF22EA080242EA0802F303CEF85C
:100560000420DEF800204FF0010354BF22EA080205
:1005700042EA0802CEF800200E680AF1010A36FAB3
:100580000AF204F1040400F0998003FA0AFB16EA67
:100590000B08F1D04E68664512DC122E56D8DFE803
:1005A00006F0350B4D49555555555555555555552D
:1005B00055555545510000BFD1F80C9046E000BF9D
:1005C0004FF6FF72C1F2210296420FDC0022C1F207
:1005D000110296421AD00022C1F21202964215D0A0
:1005E0000022C1F22102964210D02FE00022C1F277
:1005F000220296420AD00022C1F23102964205D070
:100600000022C1F23202964220D100BF8A684AB16C
:10061000012A14BFC0F814B0C0F810B04FF0080998
:1006200014E000BF4FF0040910E000BFCA6802F1F7
:1006300004090BE04FF0000908E000BFCA6802F1AE
:10064000080903E0CA6802F10C0900BF0246264609
:10065000B8F5807F24BF0432203E17680F25B540CF
:1006600027EA050509FA06F635431560CA79D20668
:100670007FF582AF41F21803C4F202031A68AEF5A7
:100680007E7642F001021A601A6802F001020192BD
:10069000019A2AF0030256F802B040F60002C4F2B2
:1006A0000102904208D040F60042C4F2010290429A
:1006B0007FF420AF012725E7002723E702B0BDE83C
:1006C000F08F000040F20410C2F200000068704792
:1006D00040F2000040F20411C2F20000C2F2000138
:1006E00000780A68104408607047000080B542F244
:1006F0000000C4F20200016841F010010160032013
:1007000000F07AF80F2000F005F800F027F800203C
:1007100080BD000070B540F20006C2F2000640F253
:1007200008013278C2F200014FF47A730968B3FB12
:10073000F2F20446B1FBF2F1084600F023FD0F2C63
:100740004FF0010508D838B94FF0FF30214600229C
:10075000002500F025F87460284670BD82B041F293
:100760001800C4F202000168022241F00101016098
:10077000016801F0010101910199416841F0805146
:100780004160406800F08050009000980420C4F25E
:100790000100016862F31A61016002B07047000055
:1007A00010B54EF60C5CCEF2000CDCF80030C3F352
:1007B000022E8EF00704042C28BF0424BEF103038C
:1007C0004FF0FF3E0EFA04F438BF0023A1439940D6
:1007D0000EFA03F39A43114300F00F0200F1604355
:1007E0000901043A03F564436244002848BF02F15A
:1007F0000C03197010BD00004EF60C51CEF2000132
:100800000A684FF6FF031A4060F30A2242F0806044
:1008100040F0FD70086070472020C4F20E200121D6
:1008200001607047012821D002280DD0102808D17E
:1008300041F20401C4F202010A6851F8040CC0013B
:1008400034D40020704700BF80B500F0DBF941F2DE
:100850000401C4F2020109680222C1F3813102EBF2
:100860004101B0FBF1F0BDE88040704741F2040067
:10087000C4F20200C16940F202320A40B2F5817F3F
:1008800004BF4FF40040704701F44071B1F5407F60
:1008900018D0B1F5007F1CBF00207047006A49F6F0
:1008A0004041800701EAE070704700BFC2F3834017
:1008B00015A3185CD2030DD440F60012C0F23D021D
:1008C000504313E050F8040C4FF22441800301EA36
:1008D000E07070470A6810A3C2F340429A5C41F28C
:1008E0000023C0F27A03B3FBF2F2504309684902D5
:1008F00048BF70474AF6AB214000CAF6AA21A0FBC8
:1009000001014808704700BF0203040506070809F3
:100910000A0B0C0D0E0F1010010200002DE9F04122
:1009200082B00446007841F21C06C007C4F20206F9
:100930004AD030685FEAC00808D4306840F0805080
:100940003060306800F080500190019847F2000755
:10095000C4F200073868C00512D4386840F48070CB
:100960003860FFF7AFFE05463868C00508D4FFF7CA
:10097000A9FE401B6428F7D9032002B0BDE8F0812E
:10098000706810F4407012D0616801F440718842C0
:100990000DD0706840F24042C4F24222012320F49C
:1009A000407113600023C0071360716026D1706826
:1009B000616820F440700843B8F1000F706003D400
:1009C000306820F0805030602068810707D556F8E5
:1009D000181CA26821F44041114346F8181CC006B7
:1009E00007D556F8180CE16820F48000084346F853
:1009F000180C002002B0BDE8F08100BFFFF762FED6
:100A0000054641F2883700BF70688007CFD4FFF7F2
:100A100059FE401BB8424FF00300F5D9EAE7000049
:100A2000002804BF012070472DE9F04381B042F255
:100A30000008C4F202080446D8F800000D4600F091
:100A4000070081420CD9D8F8000020F007002843A5
:100A5000C8F80000D8F8000000F00700A8426CD1E8
:100A6000206841F204098107C4F2020917D5410741
:100A700005D5D9F8001041F4E061C9F8001001076C
:100A800005D5D9F8001041F46051C9F80010D9F823
:100A90000010A26821F0F0011143C9F80010C0074E
:100AA00042D1D8F8000000F0070085420CD2D8F8F7
:100AB000000020F007002843C8F80000D8F8000024
:100AC00000F00700A84238D12068410707D5D9F8BF
:100AD0000010E26821F4E0611143C9F8001000073A
:100AE00008D5D9F80000216920F4605040EAC1001F
:100AF000C9F80000D9F8002002F00C00082841F2E3
:100B00000020C0F27A004DD141F28C63C2F38341E0
:100B1000C0F60003595CD20338D440F60010C0F28E
:100B20003D0048433EE000BF606859F8041C0228BD
:100B300008D0012826D1890306D4012001B0BDE8E0
:100B4000F08300BF8901F8D5D9F8001021F0030126
:100B50000843C9F80000FFF7B5FD064641F28837A3
:100B6000D9F80000616800F00C00B0EB810F98D05C
:100B7000FFF7A8FD801BB842F2D9032001B0BDE801
:100B8000F08300BF8907D8D5DEE700BFD9F8002081
:100B900041F28A63C2F34042C0F600039A5C4843C4
:100BA000B0FBF2F0D9F8001041F27262C1F3031108
:100BB000C0F60002515C40F2080220FA01F140F256
:100BC0000400C2F200000068C2F200021160FFF7E8
:100BD000A1FD002001B0BDE8F083000040F2080054
:100BE00041F20401C2F20000C4F202010068096887
:100BF00041F28262C1F30221C0F60002515CC8409A
:100C00007047000040F2080041F20401C2F2000007
:100C1000C4F202010068096841F28262C1F3C22194
:100C2000C0F60002515CC84070470000002804BFB5
:100C3000012070472DE9F04182B00446007841F26E
:100C40000006C007C4F202060CD0706800F00C0069
:100C5000042840F081803068800303D56068002854
:100C600000F04681207880071BD5706810F00C0FCB
:100C700009D0706800F00C00082840F08780706888
:100C8000C00300F183803068800703D52069012804
:100C900040F02E813068616920F0F80040EAC10020
:100CA00030602078000713D4207840072CD4E56901
:100CB000002D00F01881706800F00C00082840F04A
:100CC000A780012D40F00481012002B0BDE8F08131
:100CD000A069002800F084800020C4F24220012195
:100CE000C0F88014FFF7EEFC054600BF706A80076D
:100CF00000F1B280FFF7E6FC401B0228F6D9032082
:100D000002B0BDE8F08100BFF0695FEAC00808D416
:100D1000F06940F08050F061F06900F08050009080
:100D2000009847F20007C4F200073868C00549D4AC
:100D3000386840F480703860FFF7C4FC054600BF97
:100D40003868C0053ED4FFF7BDFC401B6428F7D9C6
:100D5000032002B0BDE8F081706800F00C000828A4
:100D600003D17068C0033FF576AF61683068002931
:100D700000F00C81B1F5A02F00F00081B1F5803FAB
:100D800040F01A8140F480301CE100BF2069002847
:100D900040F20000C4F2422000F08880012101608E
:100DA000FFF790FC054600BF306880073FF572AF43
:100DB000FFF788FC401B0228F6D9032002B0BDE8EB
:100DC000F08100BFE168306A002900F09D800529AC
:100DD00000F09280012940F0AF8040F00100B1E0C6
:100DE0000020C4F242200021C0F88014FFF76AFC02
:100DF000054600BF706A80077FF556AFFFF762FCBB
:100E0000401B0228F6D9032002B0BDE8F08100BFE4
:100E10000027C4F2422700203866FFF753FC022D5A
:100E200005460DD13068800140F1DE80FFF74AFCB5
:100E3000401B02284FF00300F4D902B0BDE8F08156
:100E4000306880014FD5FFF73DFC401B02284FF072
:100E50000300F5D9F1E700BF40F20800C2F200003C
:100E6000006844F6D351C1F26201A0FB0101480AB7
:100E7000019000BF00BF0198411E002801913FF47E
:100E800013AF00BF0198411E002801913FF40CAF41
:100E900000BF0198411E002801913FF405AF00BF3B
:100EA0000198411E00280191E4D1FDE60021016076
:100EB000FFF708FC054600BF306880077FF5F1AEFC
:100EC000FFF700FC401B02284FF00300F4D9B4E701
:100ED0007068216A00F480328A4209D1616A00F4A4
:100EE0007010884204D1002002B0BDE8F08100BF3C
:100EF000012002B0BDE8F08140F004003062306AA9
:100F000040F001001EE000BF20F001003062306AB6
:100F100020F004003062FFF7D5FB054641F2883728
:100F2000306A800720D5FFF7CDFB401BB8424FF059
:100F30000300F5D981E700BF20F001003062306A7C
:100F400020F004003062FFF7BDFB054641F2883710
:100F5000306A800708D4FFF7B5FB401BB842F7D9C9
:100F6000032002B0BDE8F081B8F1000F3FF59FAE5D
:100F7000F06920F08050F06199E600BF40F48020D5
:100F80003060306840F480301CE000BF20F48030D6
:100F90003060306820F480203060FFF793FB054616
:100FA000306880037FF55EAEFFF78CFB401B642842
:100FB0004FF00300F4D940E720F48030306030680F
:100FC00020F480203060FFF77DFB05463068800309
:100FD0003FF548AEFFF776FB401B6428F6D90320A7
:100FE00002B0BDE8F08100BF206AB0F5803F05D1B6
:100FF0007168A26821F40031114371607168626AFE
:1010000021F4741111430843706001203866FFF722
:1010100059FB0446306880013FF565AFFFF752FB8E
:10102000001B02284FF00300F4D906E746F6004003
:10103000C4F2000050F8210080B2704790B246F62A
:101040000042C4F2000242F821007047002804BFA9
:101050000120704770B50446407C20B90020207400
:10106000204600F06BF8022060742068416821F08F
:1010700008014160FFF726FB064600BF206845686F
:10108000FFF720FB290705460ED4A81BB0F57A7F91
:10109000F4D901200421617470BD00BFFFF712FB79
:1010A000401BB0F57A7FF4D8216848688006F5D5F2
:1010B000486846F62C4240F0100048604868C4F288
:1010C000000220F007004860A06818B1536823F0C0
:1010D00001035360136823F4607318431060606861
:1010E000421C05D10120FFF79DFB18B32168013890
:1010F000C0F3034280B28A60C860486820F01000E4
:101100004860FFF7DFFA054620684068800607D48C
:10111000FFF7D8FA401BB0F57A7FF5D9B9E700BFE1
:1011200040F201110020A4F80D100121E073617458
:1011300070BD00BF04210120617470BD006842F6DB
:101140000001C4F20001884218BF704780B582B028
:10115000FFF762FB41F21C00C4F20200016841F09B
:10116000006101600068012100F0006001900198B9
:1011700040F23C40C4F24220016002B0BDE8804031
:1011800070470000411E0020B0EB116F1CBF012012
:1011900070474EF21002CEF2000251604EF623511B
:1011A000CEF20001F0230B700721906011607047B0
:1011B000002804BF0120704710B5044690F8410094
:1011C00028B9002084F84000204600F063F824206D
:1011D00084F841002068D4E90212C36823F4005364
:1011E000C360036923F440531A430261D4E9042322
:1011F0001143C268194341F20C639A431143C16021
:101200004169A26921F44071114343F60002C4F21E
:1012100001029042416103D0FFF7E0FC02E000BF11
:10122000FFF7F0FCD4E90023192148439900B0FBF3
:10123000F1F048F21F5CC5F2EB1CA0FB0C314FF63D
:101240009C734909C0F6FF7301FB0300322303EBD3
:101250000010A0FB0C03F02000EA531000EB01107B
:10126000C3F34311084490601069202120F490409A
:101270001061506920F02A005061D06840F400509D
:10128000D0600020606484F8411084F842106063EC
:1012900010BD000070B586B040F60004C4F2010431
:1012A000006804F54051002688420596CDE90366A2
:1012B000029601D006B070BD41F21800C4F20200DF
:1012C000016802AD41F480410160016801F4804190
:1012D00001910199016841F004010160006829460B
:1012E00000F00400019001984FF400700290022079
:1012F0000390032005902046FFF7DCF84FF4806050
:10130000CDE90206204629460496FFF7D3F806B039
:1013100070BD00002DE9F04381B0044690F8410013
:10132000202809D100294FF0010018BF002A07D159
:1013300001B0BDE8F08300BF022001B0BDE8F0833A
:101340000020606421201D460E4684F841001746A7
:10135000FFF7B8F9A784E784A1688146B1F5805FFB
:1013600002D1206900285DD037460020E28C216838
:10137000002A5DD06A1C24D0002D4AD0804600BFD0
:101380000868000608D4FFF79DF9A0EB0900A84201
:101390007AD82168C868F3E717B117F8010B04E0A1
:1013A00038F8020B00276FF35F204860E08C0138AB
:1013B000E084E08C0028E3D13AE000BF0A6812061E
:1013C00009D40A68120606D40A6812065CBF0A68C5
:1013D0005FEA0262F2D51FB117F8012B05E000BFEA
:1013E00030F8022B00276FF35F224A60E28C013A4B
:1013F000E284E28C002AE4D11AE000BF30F8022B2C
:1014000000276FF35F224A60E28C013AE284E28CAB
:1014100072B10A68120635D5002FEFD017F8012BEC
:10142000F1E700BF00273046E28C2168002AA1D1F5
:10143000086840061ED42DB3681C14D10868400605
:101440002AD40868400627D40868400624D40868CF
:1014500040064FF00000F1D50DE000BF2068C168E4
:101460000068400618D4FFF72DF9A0EB0900A84248
:10147000F4D909E00020202184F8411001B0BDE832
:10148000F08300BFFFF71EF90320202184F84110EC
:1014900001B0BDE8F08300BF0020202184F8411096
:1014A00001B0BDE8F0830000FEE70000FEE70000A9
:1014B000FEE700007047000070470000FFF708B922
:1014C00070470000FEE7000094B0FFF70FF9092015
:1014D00000240A904FF480300225CDE90B04CDE9B9
:1014E00011504FF4E010012113900AA80F94CDE998
:1014F0000D44CDE903440E911091FFF797FB28B1FD
:10150000EFF3108072B600BFFEE700BF0F20CDE9F9
:1015100005054FF48060CDE9080405A80221079471
:10152000FFF77EFA20B1EFF3108072B6FEE700BF3E
:10153000012001904FF40070029001A8FFF7EEF92E
:1015400020B1EFF3108072B6FEE700BF41F218043D
:10155000C4F20204206842F6000640F02000206039
:101560002068C4F2000600F020000A900A98206863
:1015700006F5883140F0040020602068002300F068
:1015800004000A900A9840F2BC00C2F200000C2548
:101590004FF4E13280E80E00C0E90333C0E905539F
:1015A000C361FFF705FE28B1EFF3108072B600BFEC
:1015B000FEE700BF606840F080506060606800F047
:1015C00080500A900A98606840F00060606060682F
:1015D00000F000600A900A98FFF71EF940F27004CC
:1015E000C2F20004204640F8046F4FF0FF314FF480
:1015F0008072C0E90112FFF729FD28B1EFF31080D6
:1016000072B600BFFEE700BF251D28460221FFF786
:101610000DFD45F2500188420AD0284601210022E2
:10162000FFF70CFD2846022145F25002FFF706FDA8
:1016300028460121FFF7FAFC0130208082B22846BB
:101640000121FFF7FBFC34F8182B41F29C61C0F636
:1016500000012046FEF7D2FD2046FEF753FE82B27F
:1016600040F2BC00C2F2000021466423FFF752FEA4
:10167000FEE700000000000000000102030406076E
:10168000080900000000010203040102020304052E
:10169000060708090A0B0C0D0E0F1010434F554E8C
:1016A0005445522052454C4F41443A2025750D0A6D
:1016B00000000000D8160008000000201000000004
:1016C00050010008E816000810000020F80600008D
:1016D0007001000800000000010000001000000080
:0816E00000127A000000000076
:04000005080000ED02
:00000001FF
